{
  "_format": "hh-sol-artifact-1",
  "contractName": "TennisPlayerToken",
  "sourceName": "contracts/TennisPlayerToken.sol",
  "abi": [
    {
      "inputs": [
        {
          "internalType": "address payable",
          "name": "_feeRecipient",
          "type": "address"
        }
      ],
      "stateMutability": "nonpayable",
      "type": "constructor"
    },
    {
      "anonymous": false,
      "inputs": [
        {
          "indexed": true,
          "internalType": "address",
          "name": "account",
          "type": "address"
        },
        {
          "indexed": true,
          "internalType": "address",
          "name": "operator",
          "type": "address"
        },
        {
          "indexed": false,
          "internalType": "bool",
          "name": "approved",
          "type": "bool"
        }
      ],
      "name": "ApprovalForAll",
      "type": "event"
    },
    {
      "anonymous": false,
      "inputs": [
        {
          "indexed": true,
          "internalType": "address",
          "name": "previousOwner",
          "type": "address"
        },
        {
          "indexed": true,
          "internalType": "address",
          "name": "newOwner",
          "type": "address"
        }
      ],
      "name": "OwnershipTransferred",
      "type": "event"
    },
    {
      "anonymous": false,
      "inputs": [
        {
          "indexed": true,
          "internalType": "uint256",
          "name": "playerId",
          "type": "uint256"
        },
        {
          "indexed": false,
          "internalType": "string",
          "name": "name",
          "type": "string"
        },
        {
          "indexed": false,
          "internalType": "string",
          "name": "description",
          "type": "string"
        },
        {
          "indexed": false,
          "internalType": "string",
          "name": "imageUrl",
          "type": "string"
        },
        {
          "indexed": false,
          "internalType": "uint256",
          "name": "pricePerToken",
          "type": "uint256"
        }
      ],
      "name": "PlayerInfoUpdated",
      "type": "event"
    },
    {
      "anonymous": false,
      "inputs": [
        {
          "indexed": true,
          "internalType": "uint256",
          "name": "tokenId",
          "type": "uint256"
        }
      ],
      "name": "TokenDelisted",
      "type": "event"
    },
    {
      "anonymous": false,
      "inputs": [
        {
          "indexed": true,
          "internalType": "uint256",
          "name": "tokenId",
          "type": "uint256"
        },
        {
          "indexed": true,
          "internalType": "address",
          "name": "owner",
          "type": "address"
        },
        {
          "indexed": false,
          "internalType": "uint256",
          "name": "price",
          "type": "uint256"
        }
      ],
      "name": "TokenListed",
      "type": "event"
    },
    {
      "anonymous": false,
      "inputs": [
        {
          "indexed": true,
          "internalType": "uint256",
          "name": "tokenId",
          "type": "uint256"
        },
        {
          "indexed": true,
          "internalType": "address",
          "name": "from",
          "type": "address"
        },
        {
          "indexed": true,
          "internalType": "address",
          "name": "to",
          "type": "address"
        },
        {
          "indexed": false,
          "internalType": "uint256",
          "name": "price",
          "type": "uint256"
        }
      ],
      "name": "TokenSold",
      "type": "event"
    },
    {
      "anonymous": false,
      "inputs": [
        {
          "indexed": true,
          "internalType": "address",
          "name": "operator",
          "type": "address"
        },
        {
          "indexed": true,
          "internalType": "address",
          "name": "from",
          "type": "address"
        },
        {
          "indexed": true,
          "internalType": "address",
          "name": "to",
          "type": "address"
        },
        {
          "indexed": false,
          "internalType": "uint256[]",
          "name": "ids",
          "type": "uint256[]"
        },
        {
          "indexed": false,
          "internalType": "uint256[]",
          "name": "values",
          "type": "uint256[]"
        }
      ],
      "name": "TransferBatch",
      "type": "event"
    },
    {
      "anonymous": false,
      "inputs": [
        {
          "indexed": true,
          "internalType": "address",
          "name": "operator",
          "type": "address"
        },
        {
          "indexed": true,
          "internalType": "address",
          "name": "from",
          "type": "address"
        },
        {
          "indexed": true,
          "internalType": "address",
          "name": "to",
          "type": "address"
        },
        {
          "indexed": false,
          "internalType": "uint256",
          "name": "id",
          "type": "uint256"
        },
        {
          "indexed": false,
          "internalType": "uint256",
          "name": "value",
          "type": "uint256"
        }
      ],
      "name": "TransferSingle",
      "type": "event"
    },
    {
      "anonymous": false,
      "inputs": [
        {
          "indexed": false,
          "internalType": "string",
          "name": "value",
          "type": "string"
        },
        {
          "indexed": true,
          "internalType": "uint256",
          "name": "id",
          "type": "uint256"
        }
      ],
      "name": "URI",
      "type": "event"
    },
    {
      "inputs": [],
      "name": "FEE_PERCENTAGE",
      "outputs": [
        {
          "internalType": "uint256",
          "name": "",
          "type": "uint256"
        }
      ],
      "stateMutability": "view",
      "type": "function"
    },
    {
      "inputs": [
        {
          "internalType": "address",
          "name": "account",
          "type": "address"
        },
        {
          "internalType": "uint256",
          "name": "id",
          "type": "uint256"
        }
      ],
      "name": "balanceOf",
      "outputs": [
        {
          "internalType": "uint256",
          "name": "",
          "type": "uint256"
        }
      ],
      "stateMutability": "view",
      "type": "function"
    },
    {
      "inputs": [
        {
          "internalType": "address[]",
          "name": "accounts",
          "type": "address[]"
        },
        {
          "internalType": "uint256[]",
          "name": "ids",
          "type": "uint256[]"
        }
      ],
      "name": "balanceOfBatch",
      "outputs": [
        {
          "internalType": "uint256[]",
          "name": "",
          "type": "uint256[]"
        }
      ],
      "stateMutability": "view",
      "type": "function"
    },
    {
      "inputs": [
        {
          "internalType": "uint256",
          "name": "tokenId",
          "type": "uint256"
        }
      ],
      "name": "buyToken",
      "outputs": [],
      "stateMutability": "payable",
      "type": "function"
    },
    {
      "inputs": [
        {
          "internalType": "uint256",
          "name": "tokenId",
          "type": "uint256"
        }
      ],
      "name": "delistToken",
      "outputs": [],
      "stateMutability": "nonpayable",
      "type": "function"
    },
    {
      "inputs": [],
      "name": "feeRecipient",
      "outputs": [
        {
          "internalType": "address payable",
          "name": "",
          "type": "address"
        }
      ],
      "stateMutability": "view",
      "type": "function"
    },
    {
      "inputs": [
        {
          "internalType": "address",
          "name": "account",
          "type": "address"
        },
        {
          "internalType": "address",
          "name": "operator",
          "type": "address"
        }
      ],
      "name": "isApprovedForAll",
      "outputs": [
        {
          "internalType": "bool",
          "name": "",
          "type": "bool"
        }
      ],
      "stateMutability": "view",
      "type": "function"
    },
    {
      "inputs": [
        {
          "internalType": "uint256",
          "name": "tokenId",
          "type": "uint256"
        },
        {
          "internalType": "uint256",
          "name": "price",
          "type": "uint256"
        }
      ],
      "name": "listToken",
      "outputs": [],
      "stateMutability": "nonpayable",
      "type": "function"
    },
    {
      "inputs": [
        {
          "internalType": "uint256",
          "name": "",
          "type": "uint256"
        }
      ],
      "name": "listedTokens",
      "outputs": [
        {
          "internalType": "uint256",
          "name": "tokenId",
          "type": "uint256"
        },
        {
          "internalType": "address",
          "name": "owner",
          "type": "address"
        },
        {
          "internalType": "uint256",
          "name": "price",
          "type": "uint256"
        },
        {
          "internalType": "bool",
          "name": "isListed",
          "type": "bool"
        }
      ],
      "stateMutability": "view",
      "type": "function"
    },
    {
      "inputs": [
        {
          "internalType": "uint256",
          "name": "playerId",
          "type": "uint256"
        },
        {
          "internalType": "uint256",
          "name": "amount",
          "type": "uint256"
        }
      ],
      "name": "mint",
      "outputs": [],
      "stateMutability": "payable",
      "type": "function"
    },
    {
      "inputs": [],
      "name": "owner",
      "outputs": [
        {
          "internalType": "address",
          "name": "",
          "type": "address"
        }
      ],
      "stateMutability": "view",
      "type": "function"
    },
    {
      "inputs": [
        {
          "internalType": "uint256",
          "name": "",
          "type": "uint256"
        }
      ],
      "name": "playerInfos",
      "outputs": [
        {
          "internalType": "string",
          "name": "name",
          "type": "string"
        },
        {
          "internalType": "string",
          "name": "description",
          "type": "string"
        },
        {
          "internalType": "string",
          "name": "imageUrl",
          "type": "string"
        },
        {
          "internalType": "uint256",
          "name": "pricePerToken",
          "type": "uint256"
        }
      ],
      "stateMutability": "view",
      "type": "function"
    },
    {
      "inputs": [],
      "name": "renounceOwnership",
      "outputs": [],
      "stateMutability": "nonpayable",
      "type": "function"
    },
    {
      "inputs": [
        {
          "internalType": "address",
          "name": "from",
          "type": "address"
        },
        {
          "internalType": "address",
          "name": "to",
          "type": "address"
        },
        {
          "internalType": "uint256[]",
          "name": "ids",
          "type": "uint256[]"
        },
        {
          "internalType": "uint256[]",
          "name": "amounts",
          "type": "uint256[]"
        },
        {
          "internalType": "bytes",
          "name": "data",
          "type": "bytes"
        }
      ],
      "name": "safeBatchTransferFrom",
      "outputs": [],
      "stateMutability": "nonpayable",
      "type": "function"
    },
    {
      "inputs": [
        {
          "internalType": "address",
          "name": "from",
          "type": "address"
        },
        {
          "internalType": "address",
          "name": "to",
          "type": "address"
        },
        {
          "internalType": "uint256",
          "name": "id",
          "type": "uint256"
        },
        {
          "internalType": "uint256",
          "name": "amount",
          "type": "uint256"
        },
        {
          "internalType": "bytes",
          "name": "data",
          "type": "bytes"
        }
      ],
      "name": "safeTransferFrom",
      "outputs": [],
      "stateMutability": "nonpayable",
      "type": "function"
    },
    {
      "inputs": [
        {
          "internalType": "address",
          "name": "operator",
          "type": "address"
        },
        {
          "internalType": "bool",
          "name": "approved",
          "type": "bool"
        }
      ],
      "name": "setApprovalForAll",
      "outputs": [],
      "stateMutability": "nonpayable",
      "type": "function"
    },
    {
      "inputs": [
        {
          "internalType": "uint256",
          "name": "playerId",
          "type": "uint256"
        },
        {
          "internalType": "string",
          "name": "name",
          "type": "string"
        },
        {
          "internalType": "string",
          "name": "description",
          "type": "string"
        },
        {
          "internalType": "string",
          "name": "imageUrl",
          "type": "string"
        },
        {
          "internalType": "uint256",
          "name": "pricePerToken",
          "type": "uint256"
        }
      ],
      "name": "setPlayerInfo",
      "outputs": [],
      "stateMutability": "nonpayable",
      "type": "function"
    },
    {
      "inputs": [
        {
          "internalType": "bytes4",
          "name": "interfaceId",
          "type": "bytes4"
        }
      ],
      "name": "supportsInterface",
      "outputs": [
        {
          "internalType": "bool",
          "name": "",
          "type": "bool"
        }
      ],
      "stateMutability": "view",
      "type": "function"
    },
    {
      "inputs": [
        {
          "internalType": "uint256",
          "name": "",
          "type": "uint256"
        }
      ],
      "name": "tokenSupply",
      "outputs": [
        {
          "internalType": "uint256",
          "name": "",
          "type": "uint256"
        }
      ],
      "stateMutability": "view",
      "type": "function"
    },
    {
      "inputs": [
        {
          "internalType": "address",
          "name": "newOwner",
          "type": "address"
        }
      ],
      "name": "transferOwnership",
      "outputs": [],
      "stateMutability": "nonpayable",
      "type": "function"
    },
    {
      "inputs": [
        {
          "internalType": "uint256",
          "name": "tokenId",
          "type": "uint256"
        }
      ],
      "name": "uri",
      "outputs": [
        {
          "internalType": "string",
          "name": "",
          "type": "string"
        }
      ],
      "stateMutability": "view",
      "type": "function"
    }
  ],
  "bytecode": "0x60806040523480156200001157600080fd5b5060405162002963380380620029638339810160408190526200003491620000e4565b6040805160208101909152600081526200004e8162000080565b506200005a3362000092565b600780546001600160a01b0319166001600160a01b039290921691909117905562000289565b60026200008e8282620001bd565b5050565b600380546001600160a01b038381166001600160a01b0319831681179093556040519116919082907f8be0079c531659141344cd1fd0a4f28419497f9722a3daafe3b4186f6b6457e090600090a35050565b600060208284031215620000f757600080fd5b81516001600160a01b03811681146200010f57600080fd5b9392505050565b634e487b7160e01b600052604160045260246000fd5b600181811c908216806200014157607f821691505b6020821081036200016257634e487b7160e01b600052602260045260246000fd5b50919050565b601f821115620001b8576000816000526020600020601f850160051c81016020861015620001935750805b601f850160051c820191505b81811015620001b4578281556001016200019f565b5050505b505050565b81516001600160401b03811115620001d957620001d962000116565b620001f181620001ea84546200012c565b8462000168565b602080601f831160018114620002295760008415620002105750858301515b600019600386901b1c1916600185901b178555620001b4565b600085815260208120601f198616915b828110156200025a5788860151825594840194600190910190840162000239565b5085821015620002795787850151600019600388901b60f8161c191681555b5050505050600190811b01905550565b6126ca80620002996000396000f3fe6080604052600436106101285760003560e01c80635a9d1ac3116100ab57806398814c401161006f57806398814c40146103a8578063a22cb465146103c8578063bed659bc146103e8578063e985e9c514610408578063f242432a14610451578063f2fde38b1461047157600080fd5b80635a9d1ac3146102ac578063715018a61461032557806375c1631d1461033a578063772154301461035a5780638da5cb5b1461038a57600080fd5b80632693ebf2116100f25780632693ebf2146101e75780632d296bf1146102145780632eb2c2d61461022757806346904840146102475780634e1273f41461027f57600080fd5b80620b46f81461012d578062fdd58e1461015557806301ffc9a7146101755780630e89341c146101a55780631b2ef1ca146101d2575b600080fd5b34801561013957600080fd5b50610142600281565b6040519081526020015b60405180910390f35b34801561016157600080fd5b50610142610170366004611ab1565b610491565b34801561018157600080fd5b50610195610190366004611af1565b61052a565b604051901515815260200161014c565b3480156101b157600080fd5b506101c56101c0366004611b0e565b61057a565b60405161014c9190611b77565b6101e56101e0366004611b8a565b610649565b005b3480156101f357600080fd5b50610142610202366004611b0e565b60056020526000908152604090205481565b6101e5610222366004611b0e565b6107de565b34801561023357600080fd5b506101e5610242366004611cfd565b610a41565b34801561025357600080fd5b50600754610267906001600160a01b031681565b6040516001600160a01b03909116815260200161014c565b34801561028b57600080fd5b5061029f61029a366004611da7565b610a8d565b60405161014c9190611eae565b3480156102b857600080fd5b506102fb6102c7366004611b0e565b600660205260009081526040902080546001820154600283015460039093015491926001600160a01b039091169160ff1684565b604080519485526001600160a01b039093166020850152918301521515606082015260800161014c565b34801561033157600080fd5b506101e5610baf565b34801561034657600080fd5b506101e5610355366004611b8a565b610bc3565b34801561036657600080fd5b5061037a610375366004611b0e565b610d15565b60405161014c9493929190611ec1565b34801561039657600080fd5b506003546001600160a01b0316610267565b3480156103b457600080fd5b506101e56103c3366004611f0c565b610ed5565b3480156103d457600080fd5b506101e56103e3366004611fa6565b610f98565b3480156103f457600080fd5b506101e5610403366004611b0e565b610fa7565b34801561041457600080fd5b50610195610423366004611fe2565b6001600160a01b03918216600090815260016020908152604080832093909416825291909152205460ff1690565b34801561045d57600080fd5b506101e561046c366004612015565b611053565b34801561047d57600080fd5b506101e561048c36600461207a565b611098565b60006001600160a01b0383166105015760405162461bcd60e51b815260206004820152602a60248201527f455243313135353a2061646472657373207a65726f206973206e6f742061207660448201526930b634b21037bbb732b960b11b60648201526084015b60405180910390fd5b506000818152602081815260408083206001600160a01b03861684529091529020545b92915050565b60006001600160e01b03198216636cdb3d1360e11b148061055b57506001600160e01b031982166303a24d0760e21b145b8061052457506301ffc9a760e01b6001600160e01b0319831614610524565b600081815260046020526040902080546060919061059790612095565b90506000036105df5760405162461bcd60e51b8152602060048201526014602482015273151bdad95b88191bd95cc81b9bdd08195e1a5cdd60621b60448201526064016104f8565b6000828152600460209081526040808320905161061f9261060b92916001830191600284019101612142565b604051602081830303815290604052611111565b90508060405160200161063291906121be565b604051602081830303815290604052915050919050565b60008111801561065a575060148111155b6106975760405162461bcd60e51b815260206004820152600e60248201526d125b9d985b1a5908185b5bdd5b9d60921b60448201526064016104f8565b6000828152600460205260408120600301546106b39083611271565b9050803410156106fb5760405162461bcd60e51b8152602060048201526013602482015272139bdd08195b9bdd59da08115512081cd95b9d606a1b60448201526064016104f8565b6000610713606461070d846002611271565b90611284565b905060006107218383611290565b905061073e3386866040518060200160405280600081525061129c565b6000858152600560205260408120805486929061075c908490612219565b90915550506007546040516001600160a01b039091169083156108fc029084906000818181858888f1935050505015801561079b573d6000803e3d6000fd5b506003546040516001600160a01b039091169082156108fc029083906000818181858888f193505050501580156107d6573d6000803e3d6000fd5b505050505050565b6000818152600660205260409020600381015460ff166108405760405162461bcd60e51b815260206004820152601960248201527f546f6b656e206e6f74206c697374656420666f722073616c650000000000000060448201526064016104f8565b806002015434101561089e5760405162461bcd60e51b815260206004820152602160248201527f53656e742076616c7565206973206c657373207468616e2074686520707269636044820152606560f81b60648201526084016104f8565b6001810154336001600160a01b03909116036108fc5760405162461bcd60e51b815260206004820152601b60248201527f43616c6c657220697320616c726561647920746865206f776e6572000000000060448201526064016104f8565b600061091b606461070d6002856002015461127190919063ffffffff16565b9050600061093682846002015461129090919063ffffffff16565b905061096c8360010160009054906101000a90046001600160a01b031633866001604051806020016040528060008152506113b0565b6007546040516001600160a01b039091169083156108fc029084906000818181858888f193505050501580156109a6573d6000803e3d6000fd5b5060018301546040516001600160a01b039091169082156108fc029083906000818181858888f193505050501580156109e3573d6000803e3d6000fd5b5060038301805460ff191690556001830154600284015460405190815233916001600160a01b03169086907f3d5eb834b5d6cadc063c171c3f25f60bca8ea892ba9db25342278927d0af95569060200160405180910390a450505050565b6001600160a01b038516331480610a5d5750610a5d8533610423565b610a795760405162461bcd60e51b81526004016104f89061222c565b610a8685858585856114da565b5050505050565b60608151835114610af25760405162461bcd60e51b815260206004820152602960248201527f455243313135353a206163636f756e747320616e6420696473206c656e677468604482015268040dad2e6dac2e8c6d60bb1b60648201526084016104f8565b6000835167ffffffffffffffff811115610b0e57610b0e611bac565b604051908082528060200260200182016040528015610b37578160200160208202803683370190505b50905060005b8451811015610ba757610b82858281518110610b5b57610b5b61227a565b6020026020010151858381518110610b7557610b7561227a565b6020026020010151610491565b828281518110610b9457610b9461227a565b6020908102919091010152600101610b3d565b509392505050565b610bb76116a8565b610bc16000611702565b565b6000610bcf3384610491565b11610c1c5760405162461bcd60e51b815260206004820152601960248201527f43616c6c6572206d757374206f776e2074686520746f6b656e0000000000000060448201526064016104f8565b60008111610c6c5760405162461bcd60e51b815260206004820152601f60248201527f5072696365206d7573742062652067726561746572207468616e207a65726f0060448201526064016104f8565b6040805160808101825283815233602080830182815283850186815260016060860181815260008a81526006865288902096518755925190860180546001600160a01b0319166001600160a01b03909216919091179055516002850155516003909301805460ff191693151593909317909255915183815284917f7765a1c07bdce3390c521eaeb86030b188b77cbaba2d76bd7c9c32d906bfbcba910160405180910390a35050565b600460205260009081526040902080548190610d3090612095565b80601f0160208091040260200160405190810160405280929190818152602001828054610d5c90612095565b8015610da95780601f10610d7e57610100808354040283529160200191610da9565b820191906000526020600020905b815481529060010190602001808311610d8c57829003601f168201915b505050505090806001018054610dbe90612095565b80601f0160208091040260200160405190810160405280929190818152602001828054610dea90612095565b8015610e375780601f10610e0c57610100808354040283529160200191610e37565b820191906000526020600020905b815481529060010190602001808311610e1a57829003601f168201915b505050505090806002018054610e4c90612095565b80601f0160208091040260200160405190810160405280929190818152602001828054610e7890612095565b8015610ec55780601f10610e9a57610100808354040283529160200191610ec5565b820191906000526020600020905b815481529060010190602001808311610ea857829003601f168201915b5050505050908060030154905084565b610edd6116a8565b60408051608081018252858152602080820186905281830185905260608201849052600088815260049091529190912081518190610f1b90826122dd565b5060208201516001820190610f3090826122dd565b5060408201516002820190610f4590826122dd565b5060608201518160030155905050847f9a840101141fdee09a2dd17479f90c1211f44d9807d991c3b9991e590551651485858585604051610f899493929190611ec1565b60405180910390a25050505050565b610fa3338383611754565b5050565b6000818152600660205260409020600101546001600160a01b031633146110105760405162461bcd60e51b815260206004820152601760248201527f43616c6c6572206973206e6f7420746865206f776e657200000000000000000060448201526064016104f8565b600081815260066020526040808220600301805460ff191690555182917fee7c2f965ebdb53834ff1ed54a46daf80c8666c699d11fa05498fae01e92737a91a250565b6001600160a01b03851633148061106f575061106f8533610423565b61108b5760405162461bcd60e51b81526004016104f89061222c565b610a8685858585856113b0565b6110a06116a8565b6001600160a01b0381166111055760405162461bcd60e51b815260206004820152602660248201527f4f776e61626c653a206e6577206f776e657220697320746865207a65726f206160448201526564647265737360d01b60648201526084016104f8565b61110e81611702565b50565b6060815160000361113057505060408051602081019091526000815290565b6000604051806060016040528060408152602001612655604091399050600060038451600261115f9190612219565b611169919061239d565b6111749060046123bf565b67ffffffffffffffff81111561118c5761118c611bac565b6040519080825280601f01601f1916602001820160405280156111b6576020820181803683370190505b50905060018201602082018586518701602081018051600082525b8284101561122c576003840193508351603f8160121c168701518653600186019550603f81600c1c168701518653600186019550603f8160061c168701518653600186019550603f81168701518653506001850194506111d1565b905250508551600390066001811461124b576002811461125e57611266565b603d6001830353603d6002830353611266565b603d60018303535b509195945050505050565b600061127d82846123bf565b9392505050565b600061127d828461239d565b600061127d82846123d6565b6001600160a01b0384166112fc5760405162461bcd60e51b815260206004820152602160248201527f455243313135353a206d696e7420746f20746865207a65726f206164647265736044820152607360f81b60648201526084016104f8565b33600061130885611834565b9050600061131585611834565b90506000868152602081815260408083206001600160a01b038b16845290915281208054879290611347908490612219565b909155505060408051878152602081018790526001600160a01b03808a1692600092918716917fc3d58168c5ae7397731d063d5bbf3d657854427343f4c083240f7aacaa2d0f62910160405180910390a46113a78360008989898961187f565b50505050505050565b6001600160a01b0384166113d65760405162461bcd60e51b81526004016104f8906123e9565b3360006113e285611834565b905060006113ef85611834565b90506000868152602081815260408083206001600160a01b038c168452909152902054858110156114325760405162461bcd60e51b81526004016104f89061242e565b6000878152602081815260408083206001600160a01b038d8116855292528083208985039055908a1682528120805488929061146f908490612219565b909155505060408051888152602081018890526001600160a01b03808b16928c821692918816917fc3d58168c5ae7397731d063d5bbf3d657854427343f4c083240f7aacaa2d0f62910160405180910390a46114cf848a8a8a8a8a61187f565b505050505050505050565b815183511461153c5760405162461bcd60e51b815260206004820152602860248201527f455243313135353a2069647320616e6420616d6f756e7473206c656e677468206044820152670dad2e6dac2e8c6d60c31b60648201526084016104f8565b6001600160a01b0384166115625760405162461bcd60e51b81526004016104f8906123e9565b3360005b84518110156116425760008582815181106115835761158361227a565b6020026020010151905060008583815181106115a1576115a161227a565b602090810291909101810151600084815280835260408082206001600160a01b038e1683529093529190912054909150818110156115f15760405162461bcd60e51b81526004016104f89061242e565b6000838152602081815260408083206001600160a01b038e8116855292528083208585039055908b1682528120805484929061162e908490612219565b909155505060019093019250611566915050565b50846001600160a01b0316866001600160a01b0316826001600160a01b03167f4a39dc06d4c0dbc64b70af90fd698a233a518aa5d07e595d983b8c0526c8f7fb8787604051611692929190612478565b60405180910390a46107d68187878787876119da565b6003546001600160a01b03163314610bc15760405162461bcd60e51b815260206004820181905260248201527f4f776e61626c653a2063616c6c6572206973206e6f7420746865206f776e657260448201526064016104f8565b600380546001600160a01b038381166001600160a01b0319831681179093556040519116919082907f8be0079c531659141344cd1fd0a4f28419497f9722a3daafe3b4186f6b6457e090600090a35050565b816001600160a01b0316836001600160a01b0316036117c75760405162461bcd60e51b815260206004820152602960248201527f455243313135353a2073657474696e6720617070726f76616c20737461747573604482015268103337b91039b2b63360b91b60648201526084016104f8565b6001600160a01b03838116600081815260016020908152604080832094871680845294825291829020805460ff191686151590811790915591519182527f17307eab39ab6107e8899845ad3d59bd9653f200f220920489ca2b5937696c31910160405180910390a3505050565b6040805160018082528183019092526060916000919060208083019080368337019050509050828160008151811061186e5761186e61227a565b602090810291909101015292915050565b6001600160a01b0384163b156107d65760405163f23a6e6160e01b81526001600160a01b0385169063f23a6e61906118c390899089908890889088906004016124a6565b6020604051808303816000875af19250505080156118fe575060408051601f3d908101601f191682019092526118fb918101906124eb565b60015b6119aa5761190a612508565b806308c379a003611943575061191e612524565b806119295750611945565b8060405162461bcd60e51b81526004016104f89190611b77565b505b60405162461bcd60e51b815260206004820152603460248201527f455243313135353a207472616e7366657220746f206e6f6e2d455243313135356044820152732932b1b2b4bb32b91034b6b83632b6b2b73a32b960611b60648201526084016104f8565b6001600160e01b0319811663f23a6e6160e01b146113a75760405162461bcd60e51b81526004016104f8906125ae565b6001600160a01b0384163b156107d65760405163bc197c8160e01b81526001600160a01b0385169063bc197c8190611a1e90899089908890889088906004016125f6565b6020604051808303816000875af1925050508015611a59575060408051601f3d908101601f19168201909252611a56918101906124eb565b60015b611a655761190a612508565b6001600160e01b0319811663bc197c8160e01b146113a75760405162461bcd60e51b81526004016104f8906125ae565b80356001600160a01b0381168114611aac57600080fd5b919050565b60008060408385031215611ac457600080fd5b611acd83611a95565b946020939093013593505050565b6001600160e01b03198116811461110e57600080fd5b600060208284031215611b0357600080fd5b813561127d81611adb565b600060208284031215611b2057600080fd5b5035919050565b60005b83811015611b42578181015183820152602001611b2a565b50506000910152565b60008151808452611b63816020860160208601611b27565b601f01601f19169290920160200192915050565b60208152600061127d6020830184611b4b565b60008060408385031215611b9d57600080fd5b50508035926020909101359150565b634e487b7160e01b600052604160045260246000fd5b601f8201601f1916810167ffffffffffffffff81118282101715611be857611be8611bac565b6040525050565b600067ffffffffffffffff821115611c0957611c09611bac565b5060051b60200190565b600082601f830112611c2457600080fd5b81356020611c3182611bef565b604051611c3e8282611bc2565b80915083815260208101915060208460051b870101935086841115611c6257600080fd5b602086015b84811015611c7e5780358352918301918301611c67565b509695505050505050565b600082601f830112611c9a57600080fd5b813567ffffffffffffffff811115611cb457611cb4611bac565b604051611ccb601f8301601f191660200182611bc2565b818152846020838601011115611ce057600080fd5b816020850160208301376000918101602001919091529392505050565b600080600080600060a08688031215611d1557600080fd5b611d1e86611a95565b9450611d2c60208701611a95565b9350604086013567ffffffffffffffff80821115611d4957600080fd5b611d5589838a01611c13565b94506060880135915080821115611d6b57600080fd5b611d7789838a01611c13565b93506080880135915080821115611d8d57600080fd5b50611d9a88828901611c89565b9150509295509295909350565b60008060408385031215611dba57600080fd5b823567ffffffffffffffff80821115611dd257600080fd5b818501915085601f830112611de657600080fd5b81356020611df382611bef565b604051611e008282611bc2565b83815260059390931b8501820192828101915089841115611e2057600080fd5b948201945b83861015611e4557611e3686611a95565b82529482019490820190611e25565b96505086013592505080821115611e5b57600080fd5b50611e6885828601611c13565b9150509250929050565b60008151808452602080850194506020840160005b83811015611ea357815187529582019590820190600101611e87565b509495945050505050565b60208152600061127d6020830184611e72565b608081526000611ed46080830187611b4b565b8281036020840152611ee68187611b4b565b90508281036040840152611efa8186611b4b565b91505082606083015295945050505050565b600080600080600060a08688031215611f2457600080fd5b85359450602086013567ffffffffffffffff80821115611f4357600080fd5b611f4f89838a01611c89565b95506040880135915080821115611f6557600080fd5b611f7189838a01611c89565b94506060880135915080821115611f8757600080fd5b50611f9488828901611c89565b95989497509295608001359392505050565b60008060408385031215611fb957600080fd5b611fc283611a95565b915060208301358015158114611fd757600080fd5b809150509250929050565b60008060408385031215611ff557600080fd5b611ffe83611a95565b915061200c60208401611a95565b90509250929050565b600080600080600060a0868803121561202d57600080fd5b61203686611a95565b945061204460208701611a95565b93506040860135925060608601359150608086013567ffffffffffffffff81111561206e57600080fd5b611d9a88828901611c89565b60006020828403121561208c57600080fd5b61127d82611a95565b600181811c908216806120a957607f821691505b6020821081036120c957634e487b7160e01b600052602260045260246000fd5b50919050565b600081546120dc81612095565b600182811680156120f4576001811461210957612138565b60ff1984168752821515830287019450612138565b8560005260208060002060005b8581101561212f5781548a820152908401908201612116565b50505082870194505b5050505092915050565b693d913730b6b2911d101160b11b81526000612161600a8301866120cf565b72111610113232b9b1b934b83a34b7b7111d101160691b815261218760138201866120cf565b6c1116101134b6b0b3b2911d101160991b815290506121a9600d8201856120cf565b61227d60f01b81526002019695505050505050565b7f646174613a6170706c69636174696f6e2f6a736f6e3b6261736536342c0000008152600082516121f681601d850160208701611b27565b91909101601d0192915050565b634e487b7160e01b600052601160045260246000fd5b8082018082111561052457610524612203565b6020808252602e908201527f455243313135353a2063616c6c6572206973206e6f7420746f6b656e206f776e60408201526d195c881bdc88185c1c1c9bdd995960921b606082015260800190565b634e487b7160e01b600052603260045260246000fd5b601f8211156122d8576000816000526020600020601f850160051c810160208610156122b95750805b601f850160051c820191505b818110156107d6578281556001016122c5565b505050565b815167ffffffffffffffff8111156122f7576122f7611bac565b61230b816123058454612095565b84612290565b602080601f83116001811461234057600084156123285750858301515b600019600386901b1c1916600185901b1785556107d6565b600085815260208120601f198616915b8281101561236f57888601518255948401946001909101908401612350565b508582101561238d5787850151600019600388901b60f8161c191681555b5050505050600190811b01905550565b6000826123ba57634e487b7160e01b600052601260045260246000fd5b500490565b808202811582820484141761052457610524612203565b8181038181111561052457610524612203565b60208082526025908201527f455243313135353a207472616e7366657220746f20746865207a65726f206164604082015264647265737360d81b606082015260800190565b6020808252602a908201527f455243313135353a20696e73756666696369656e742062616c616e636520666f60408201526939103a3930b739b332b960b11b606082015260800190565b60408152600061248b6040830185611e72565b828103602084015261249d8185611e72565b95945050505050565b6001600160a01b03868116825285166020820152604081018490526060810183905260a0608082018190526000906124e090830184611b4b565b979650505050505050565b6000602082840312156124fd57600080fd5b815161127d81611adb565b600060033d11156125215760046000803e5060005160e01c5b90565b600060443d10156125325790565b6040516003193d81016004833e81513d67ffffffffffffffff816024840111818411171561256257505050505090565b828501915081518181111561257a5750505050505090565b843d87010160208285010111156125945750505050505090565b6125a360208286010187611bc2565b509095945050505050565b60208082526028908201527f455243313135353a204552433131353552656365697665722072656a656374656040820152676420746f6b656e7360c01b606082015260800190565b6001600160a01b0386811682528516602082015260a06040820181905260009061262290830186611e72565b82810360608401526126348186611e72565b905082810360808401526126488185611b4b565b9897505050505050505056fe4142434445464748494a4b4c4d4e4f505152535455565758595a6162636465666768696a6b6c6d6e6f707172737475767778797a303132333435363738392b2fa2646970667358221220d8b5ecf58c7cf45fd60831540427a909e65dc645aa225db4a8d21b9d37ba5e9764736f6c63430008180033",
  "linkReferences": {},
  "deployedLinkReferences": {}
}